:020000040800F2
:1000000000000220250C0008750C00088D0A00086D
:10001000750C0008750C0008750C00080000000045
:10002000000000000000000000000000750C000847
:10003000750C000800000000750C0008250A000877
:10004000750C0008750C0008750C0008750C00088C
:1000500000000000750C0008750C0008750C000805
:10006000750C0008750C0008750C0008750C00086C
:10007000750C0008750C0008750C0008750C00085C
:10008000750C0008750C0008750C0008750C00084C
:10009000750C0008750C0008750C0008490A00086A
:1000A000750C0008750C0008750C0008750C00082C
:1000B000750C0008750C0008750C0008750C00081C
:1000C000750C0008750C0008750C0008750C00080C
:1000D000750C0008750C0008750C0008750C0008FC
:1000E000750C0008750C0008750C0008750C0008EC
:1000F000750C0008750C0008750C0008750C0008DC
:10010000750C0008750C0008750C0008750C0008CB
:10011000750C0008750C0008750C0008750C0008BB
:10012000750C0008750C0008750C0008750C0008AB
:10013000750C0008750C0008750C0008750C00089B
:10014000750C0008750C0008750C0008750C00088B
:10015000750C0008750C0008750C0008750C00087B
:10016000750C0008750C0008750C0008750C00086B
:10017000750C0008750C0008750C0008750C00085B
:08018000750C0008750C000865
:1001900010B5054C237833B9044B13B10448AFF3C1
:1001A00000800123237010BD5400002000000000D7
:1001B000C419000808B5034B1BB103490348AFF34A
:1001C000008008BD0000000058000020C41900088D
:1001D00001F0FF01102A2BDB10F0070F08D010F8F8
:1001E000013B013A8B422DD010F0070F42B3F6D1FC
:1001F000F0B441EA012141EA014122F007047FF015
:1002000000070023F0E80256083C85EA010586EA6B
:10021000010685FA47F5A3FA87F586FA47F6A5FAA7
:1002200087F68EB9EED1F0BC01F0FF0102F00702B3
:1002300032B110F8013B013A83EA010313B1F8D15E
:100240000020704701387047002D06BF354603383F
:10025000073815F0010F07D1013015F4807F02BF78
:10026000013015F4C03F0130F0BC0138704700BFC9
:1002700080B485B000AFF860B9607A603B60FB681D
:100280003A68DA61FB68BA685A60FB687A689A6013
:10029000FB6800221A74FB680022DA60FB68002207
:1002A0001A76FB683A8B1A8000BF1437BD465DF89A
:1002B000047B704780B586B000AF78607B685B6870
:1002C000002B00F08A807B689B68002B00F0858003
:1002D0007B685B687B617B689B683B617B681B8894
:1002E000DAB27B69104698470346FB737B681B7C38
:1002F000FA7B9A4205D03B69984702467B685A616F
:1003000067E0FB7B002B48D07B681B7E03F001037A
:10031000002B28D13B69984702467B685B69D21A5B
:100320007B68DB699A4254D37B681B7E23F002030F
:10033000DAB27B681A767B681B7E43F00903DAB277
:100340007B681A767B6800229A843B69984702464C
:100350007B681A623B69984702467B685A617B68F2
:100360000022DA6035E03B69984702467B681B6AE9
:10037000D31A632B2DD93B69984702467B681A62D2
:100380007B689B8C01339AB27B689A847B68DB68BC
:1003900003F164027B68DA601BE07B681B7E03F07C
:1003A0000103002B15D07B680022DA607B681B7E7E
:1003B00023F01903DAB27B681A767B681B7E43F060
:1003C0000203DAB27B681A763B69984702467B687B
:1003D0005A617B68FA7B1A7400E000BF1837BD468B
:1003E00080BD80B483B000AF78607B681B7E03F073
:1003F0000803002B08D07B681B7E23F00803DAB2C9
:100400007B681A76012300E0002318460C37BD46AE
:100410005DF8047B704780B483B000AF78607B6880
:100420001B7E03F00203002B08D07B681B7E23F0A9
:100430000203DAB27B681A76012300E00023184633
:100440000C37BD465DF8047B704780B485B000AFC3
:10045000F860B9601346FB71FB79002B13D0FB6881
:10046000DB68BA689A4215D8FB681B7E03F010035C
:10047000002B0FD1FB681B7E43F01003DAB2FB6840
:100480001A76012307E0FB68DB68BA689A4201D854
:10049000012300E0002318461437BD465DF8047BB5
:1004A000704780B584B000AF786000F00FF8F86056
:1004B00000BF00F00BF80246FB68D31A7A689A4234
:1004C000F7D800BF1037BD4680BD000080B400AF34
:1004D000034B1B681846BD465DF8047B704700BFA0
:1004E0007000002080B483B000AF7860054B1A68BC
:1004F0007B681344034A136000BF0C37BD465DF8A8
:10050000047B70477000002080B584B000AFF860B5
:10051000B9607A60FB70FB68002B6CD0BB68002B65
:1005200069D07B68002B66D0FB68BA689A60FB686C
:100530007A68DA60FB683A7EDA70FB68FA781A71DA
:10054000FB6800225A71FB6800229A71FB68002246
:100550005A70FB68DB78012B06D9FB685B7843F0A7
:100560000803DAB2FB685A70FB689B68002103201D
:100570009847FB68DB682D209847FB689B68002143
:1005800003209847FB68DB682D209847FB689B6831
:10059000002103209847FB68DB682D209847FB6803
:1005A0009B68002102209847FB68DB680120984780
:1005B000FB685B7843F02003DBB21946F86800F073
:1005C000C5F8FB6804221A70F86800F086F8F8682D
:1005D00000F015F8FB6802229A70FB689B7843F0E4
:1005E0000403DBB21946F86800F0B0F8FB68DB687A
:1005F0002D20984700E000BF1037BD4680BD80B574
:1006000082B000AF78600121786800F09FF87B68C5
:10061000DB680320984700BF0837BD4680BD80B522
:1006200084B000AFF8607B600B46FB721346BB7270
:10063000BA7AFB7A1946F86800F0D4F844E0FB680F
:100640005A79FB681B799A4210D3FB6800225A71D1
:10065000FB689B790133DAB2FB689A71FB685979C0
:10066000FB689B791A46F86800F0BCF87B681B7839
:100670000A2B0ED1FB689B790133DAB2FB689A71C1
:10068000FB685979FB689B791A46F86800F0AAF86C
:1006900017E07B681B780D2B07D1FB689B791A4606
:1006A0000021F86800F09EF80BE07B681B78194683
:1006B000F86800F072F8FB685B790133DAB2FB6826
:1006C0005A717B6801337B607B681B78002BB6D145
:1006D00000BF00BF1037BD4680BD80B582B000AFFF
:1006E00078607B681B7843F00403DAB27B681A7089
:1006F0007B681B7843F00803DBB21946786800F08A
:1007000025F800BF0837BD4680BD08B480B599B054
:1007100000AF78600B46FB701346BB7007F17003A7
:10072000FB6007F11003FA68F96E184600F0C4FC8C
:1007300007F11003BA78F9787868FFF770FF00BF07
:100740006437BD46BDE8804001B0704780B582B0D7
:1007500000AF78600B46FB707B689B68FA781209E3
:10076000D2B20021104698477B689B68FA7802F065
:100770000F02D2B2002110469847FB78032B04D811
:100780007B68DB680320984704E07B68DB68022015
:10079000984700BF0837BD4680BD80B584B000AF24
:1007A00078600B46FB703223FB607B689B68FA78AD
:1007B0001209D2B20121104698477B689B68FA78EB
:1007C00002F00F02D2B201211046984700BFFB6829
:1007D0005A1EFA60002BFAD100BF00BF1037BD4689
:1007E00080BD000080B584B000AF78600B46FB7020
:1007F0001346BB70114BFB607B68DB78BA789A427A
:1008000001D30023BB707B68FA785A717B68BA7891
:100810009A71BB7810333B4413F8042CFB781344D3
:10082000DBB25BB263F07F035BB2DBB21946786880
:10083000FFF78CFF00BF1037BD4680BD0040145449
:1008400080B483B000AF03463960FB7197F907307D
:10085000002B0ADB3B68DAB20C4997F9073012012A
:10086000D2B20B4483F800230AE03B68DAB20849AD
:10087000FB7903F00F03043B1201D2B20B441A764A
:1008800000BF0C37BD465DF8047B704700E100E017
:1008900000ED00E080B582B000AF78607B68013B7E
:1008A000B3F1807F01D301230FE00A4A7B68013B4B
:1008B00053600F214FF0FF30FFF7C2FF054B0022BE
:1008C0009A60044B07221A60002318460837BD4679
:1008D00080BD00BF10E000E080B582B002AF00F044
:1008E00021F9304B1B68304AA2FB03239B091846B1
:1008F000FFF7D0FF0F214FF0FF30FFF7A1FF00F00F
:1009000003FA002300931423284A29492948FFF7B2
:10091000AFFC012300930F23244A25492648FFF703
:10092000A7FC042300931423244A25492548FFF7F4
:10093000EBFD254B002200212248FFF7E6FE1D4873
:10094000FFF74FFD0346002B09D01E48FFF757FE67
:100950001E4B002200211B48FFF761FEEFE701223A
:1009600040F6B8311348FFF770FD0346002B09D05D
:100970001448FFF744FE164B002200211148FFF7F0
:100980004EFEDCE70B48FFF746FD0346002BD6D0B2
:100990000C48FFF734FE0F4B002200210948FFF7F7
:1009A0003EFECCE700000020D34D6210CD040008CD
:1009B000D9090008740000209C000020A30400084E
:1009C000ED0F0008C4000020DC190008F41900082D
:1009D000041A00081C1A000880B485B000AF034652
:1009E000FB710023FB73FB79002B02D0012B04D099
:1009F0000CE00A4B1B68FB7308E0094B1B68002BDB
:100A00000CBF01230023DBB2FB7300BFFB7B184646
:100A10001437BD465DF8047B704700BF00024042BA
:100A20000402404280B500AF0120FFF75BFD04489F
:100A3000FFF740FC0348FFF73DFC00BF80BD00BF4F
:100A4000740000209C00002080B400AF0E4B5B6956
:100A500003F04003002B05D00B4B5B690A4A43F0BF
:100A600040035361084B5B6903F08003002B05D002
:100A7000054B5B69044A43F08003536100BFBD46E8
:100A80005DF8047B704700BF003C014080B400AFBC
:100A9000FEE7000080B586B000AF7860144A154BC1
:100AA000D31A7B617B693B61134B1B68002B02D11E
:100AB000114B124A1A60104B1A687B6813443A694A
:100AC0009A4207D200F002FB03460C221A604FF054
:100AD000FF3309E0084B1B68FB60074B1A687B6813
:100AE0001344054A1360FB6818461837BD4680BD9D
:100AF0000000022000040000D4000020200200209A
:100B000080B400AF064BD3F88830054A43F4700335
:100B1000C2F8883000BFBD465DF8047B704700BF57
:100B200000ED00E080B487B000AF00233B610023FC
:100B30007B610223FB600023BB6002237B60344B9C
:100B40009B6803F00C033B613B69082B11D03B69A8
:100B5000082B44D83B69002B03D03B69042B04D0FD
:100B60003DE02C4B2C4A1A603DE02A4B2B4A1A6080
:100B700039E0274B5B689B0D03F00103BB60244BFE
:100B80005B6803F03F037B60BB68002B0CD0234AFB
:100B90007B68B2FBF3F31E4A52689209C2F3080263
:100BA00002FB03F37B610BE01B4A7B68B2FBF3F3B0
:100BB000174A52689209C2F3080202FB03F37B61F1
:100BC000134B5B681B0C03F0030301335B00FB60FA
:100BD0007A69FB68B2FBF3F30E4A136003E00D4B36
:100BE0000D4A1A6000BF0A4B9B681B0903F00F03F4
:100BF0000B4AD35C3B61074B1A683B6922FA03F34B
:100C0000044A136000BF1C37BD465DF8047B704783
:100C100000380240000000200024F40000127A0096
:100C2000301A00080D488546FFF76AFF0C480D4949
:100C30000D4A002302E0D458C4500433C4188C4237
:100C4000F9D30A4A0A4C002301E013600432A2429D
:100C5000FBD300F041FAFFF73FFEFEE70000022061
:100C600000000020540000207C1A000854000020DE
:100C700020020020FEE7000080B483B000AF0346EE
:100C8000FB7197F90730002B0BDBFB7903F01F0298
:100C9000074997F907305B09012000FA02F241F891
:100CA000232000BF0C37BD465DF8047B704700BFB2
:100CB00000E100E080B483B000AF03463960FB710F
:100CC00097F90730002B0ADB3B68DAB20C4997F939
:100CD00007301201D2B20B4483F800230AE03B68CC
:100CE000DAB20849FB7903F00F03043B1201D2B2D8
:100CF0000B441A7600BF0C37BD465DF8047B704785
:100D000000E100E000ED00E080B582B000AF6A4B8A
:100D10001B6B694A43F001031363674B1B6B664A05
:100D200043F001031363654B1B68644A23F003031C
:100D30001360624B1B68614A23F00C0313605F4B26
:100D4000DB685E4A23F00F03D3605C4BDB685B4AD1
:100D500043F00403D360584B1B6B574A43F0020324
:100D60001363554B1B6B544A43F002031363544BFC
:100D70001B68534A23F440531360514B1B68504A7D
:100D800023F4404313604E4BDB684D4A23F47F53FA
:100D900023F03F03D3604A4BDB68494A43F40053D6
:100DA000D360474BDB68464A1B0C1B04D360444BA3
:100DB000DB68434A43F40043D3603F4B1B6B3E4A1E
:100DC00043F0080313633C4B1B6B3B4A43F008039F
:100DD00013633C4B1B6823F040733A4A43F0807323
:100DE0001360384B1B6823F04063364A43F080633E
:100DF0001360314B1B6B304A43F008031363314BD4
:100E00001B6823F040532F4A43F0805313602A4B52
:100E10001B6B294A43F002031363294B1B6823F41D
:100E20004043274A43F480431360234B5B6C224AC0
:100E300043F480435364244B1B68234A43F0C003AC
:100E40001360214B9B68204A43F0C00393601E4B04
:100E50005B691D4A43F0C003536101233B603B685B
:100E6000002B02D118237B6009E03B689B0006221F
:100E7000B2FBF3F101FB03F3D31A9B007B60134B2E
:100E8000DB686FF00F017A6801FA02F211460F4A2F
:100E90000B40D3600D4BDB6801217A6801FA02F246
:100EA00011460A4A0B43D36001233B603B68002B89
:100EB0000ED11C237B6015E0003802400000024088
:100EC00000040240000C0240003C01400038014098
:100ED0003B689B000722B2FBF3F101FB03F3D31A3B
:100EE0009B007B603D4BDB686FF00F017A6801FA75
:100EF00002F21146394A0B40D360384BDB680121BE
:100F00007A6801FA02F21146344A0B43D360172083
:100F1000FFF7B2FE1720FFF7AFFE02211720FFF701
:100F2000C9FE03211720FFF7C5FE2D4B1B6B2C4A72
:100F300043F0040313632A4B1B6B294A43F0040359
:100F40001363274B1B6B264A43F008031363244BA0
:100F50001B6B234A43F008031363214B1B6B204A8E
:100F600043F0080313631E4B1B6B1D4A43F0080339
:100F700013631C4B1B6823F440031A4A43F4800399
:100F80001360184B1B6823F04073164A43F08073BC
:100F90001360154B1B6823F00303134A43F001034E
:100FA0001360114B1B6823F00C030F4A43F004033A
:100FB00013600D4B1B6823F030030B4A43F0100302
:100FC0001360094B1B6823F0C003074A43F040033A
:100FD000136000BF0837BD4680BD00BF0038014028
:100FE0000038024000080240000C024080B485B086
:100FF00000AF03460A46FB711346BB710123FB6039
:10100000FB79DB08DBB21B4A03F001031360FB79B9
:101010009B08DBB2184A03F001031360FB795B08FD
:10102000DBB2164A03F001031360FB79144A03F0A4
:1010300001031360134B00221A60BB79002B03D00D
:10104000114B01221A6002E00F4B00221A600D4B77
:1010500001221A6000BFFB685A1EFA60002BFAD109
:10106000084B00221A6000BF1437BD465DF8047BB0
:10107000704700BF8C824142888241428482414253
:1010800080824142B0024142AC02414200B59BB075
:10109000009104916FF0004105910291054903917F
:1010A000694600F091F9009B00221A701BB05DF8B0
:1010B00004FB00BF0802FFFF13460A460146024830
:1010C0000068FFF7E3BF00BF50000020014B186825
:1010D000704700BF5000002070B50D4D0D4C641BD3
:1010E000A4100026A64209D10B4D0C4C00F06AFC5E
:1010F000641BA4100026A64205D170BD55F8043B20
:1011000098470136EEE755F8043B98470136F2E779
:10111000741A0008741A0008741A0008781A000873
:101120007047704737B5002944D051F8043C01900E
:10113000002BA1F10404B8BFE41800F0DFF81E4A48
:101140000198136833B96360146003B0BDE83040A0
:1011500000F0DAB8A34208D9256861198B4201BFB3
:1011600019685B6849192160EDE71A465B680BB1A5
:10117000A342FAD911685518A5420BD1246821441D
:101180005418A3421160E0D11C685B6853600C44A2
:101190001460DAE702D90C230360D6E725686119E9
:1011A0008B4204BF19685B68636004BF4919216002
:1011B0005460CAE703B030BD1802002070B50E4E6F
:1011C0000C463168054611B900F0A6FB3060214697
:1011D000284600F0A1FB431C0AD0C41C24F00304E1
:1011E000A04207D0211A284600F096FB013001D119
:1011F0004FF0FF34204670BD1C0200202DE9F8435B
:10120000CD1C25F0030508350C2D38BF0C25002D0D
:10121000074601DBA94205D90C233B600026304676
:10122000BDE8F883DFF8D08000F068F8D8F8003027
:101230001C465CBB29463846FFF7C0FF431C0446EA
:1012400055D1D8F800402646002E45D1002C48D074
:1012500023683146384604EB030900F05DFB814505
:101260003FD121686D1A29463846FFF7A7FF0130A4
:1012700037D023682B442360D8F80030002B38D0B7
:101280005A68A2422BD100225A600FE02268521BFA
:101290001FD40B2A17D96119A342256018BF5960C2
:1012A000636808BFC8F8001062514B60384604F10B
:1012B0000B0600F029F826F00706231DF21AAED01F
:1012C0009B1BA350ABE7A3426268DDD1C8F80020A6
:1012D000ECE723466468ACE734467668B4E7134627
:1012E000CCE70C233B60384600F00EF897E725600A
:1012F000DCE75B60FFDE00BF180200200148FFF75B
:101300000FBF00BF140200200148FFF70ABF00BF53
:10131000140200202DE9F0478E681F46BE420B687C
:1013200082460C4690462CD88A8912F4906F26D0BB
:101330006569096905EB4505A3EB010905EBD57561
:101340007B1C4B446D109D4238BF1D46530527D56D
:101350002946FFF753FF064660B321694A4600F06D
:10136000EBFAA38923F4906343F08003A381266101
:1013700065614E44A5EB09052660A5603E46BE4268
:1013800000D93E4620683246414600F0ABFAA368D9
:101390009B1BA3602368334423600020BDE8F087D3
:1013A0002A4600F0D7FA06460028E0D121695046C7
:1013B000FFF7B8FE0C23CAF80030A38943F04003BE
:1013C000A3814FF0FF30E9E72DE9F04F98468B8974
:1013D0001B069DB007460D4614460ED50B6963B932
:1013E0004021FFF70BFF2860286120B90C233B60E8
:1013F0004FF0FF30D0E040236B610023099320239E
:101400008DF82930CDF80C803023DFF8A4818DF8D9
:101410002A304FF0010923469A4613F8012B0AB1EE
:10142000252AF9D1BAEB040B0BD05B46224629469C
:101430003846FFF76FFF013000F0A980099A5A443F
:1014400009929AF80030002B00F0A18000234FF0A1
:10145000FF32CDE905230AF1010A049307938DF8C1
:1014600053301A935446052214F8011B5048FEF7D6
:10147000AFFE049AD8B9D00644BF20238DF853306C
:10148000110744BF2B238DF853309AF800302A2BD4
:1014900015D0079A544600204FF00A0C214611F847
:1014A000013B303B092B4DD9B0B1079214E0A0EBC2
:1014B000080309FA03F313430493A246D2E7039BFC
:1014C000191D1B680391002BBBBF5B4242F0020257
:1014D00007930793B8BF049223782E2B0CD163781F
:1014E0002A2B34D1039B1A1D1B680392002BB8BF13
:1014F0004FF0FF3302340593DFF8C4A021780322B4
:101500005046FEF765FE38B1049BA0EB0A0040226E
:10151000824013430134049314F8011B25488DF8CD
:1015200028100622FEF754FE002838D0224B1BBBA1
:10153000039B073323F0070308330393099B3344CA
:10154000099368E70CFB02320C460120A6E7002352
:101550000134059319464FF00A0C204610F8012B70
:10156000303A092A03D9002BC6D00591C4E70CFBF9
:10157000012104460123F0E703AB00932A460F4BF9
:1015800004A93846AFF30080421C0646D6D1AB8989
:101590005B063FF52DAF09981DB0BDE8F08F03AB9A
:1015A00000932A46054B04A9384600F079F8EBE78A
:1015B000401A00084A1A000800000000151300082D
:1015C000461A00082DE9F047164699468A680B69C5
:1015D000DDF820809342B8BF1346336091F8432072
:1015E00007460C460AB1013333602368990642BFAF
:1015F000336802333360256815F0060506D104F11F
:10160000190AE36832689B1AAB4226DC94F843203F
:10161000131E226818BF012392062BD404F1430243
:1016200049463846C04701301ED02368226903F07E
:101630000603042B02BFE5683368ED1AA3680CBFEC
:1016400025EAE57500259342C4BF9B1AED180026D4
:101650001A34B5421AD1002008E001235246494607
:101660003846C047013003D14FF0FF30BDE8F08766
:101670000135C6E7E1185A1C302081F843002244A6
:1016800094F8451082F843100233C7E7012322463D
:1016900049463846C0470130E6D00136D9E7000058
:1016A0002DE9FF470F7E0C9D782F914680460C4612
:1016B0009A4601F1430207D8622F0AD8002F00F0A2
:1016C000D480582F00F0C08004F1420584F84270A5
:1016D0003AE0A7F16303152BF6D801A151F823F0E6
:1016E000391700084D170008C9160008C916000868
:1016F000C9160008C91600084D170008C9160008C9
:10170000C9160008C9160008C916000851180008B3
:10171000791700080B180008C9160008C916000838
:1017200073180008C916000879170008C9160008C0
:10173000C9160008131800082B681A1D1B682A60B8
:1017400004F1420584F8423001239FE020682B68B1
:10175000070603F10401296001D51E6803E046066F
:10176000FBD5B3F90060002E03DA2D23764284F80E
:1017700043305A480A2312E02B682068191D29605B
:10178000050601D51E6802E04106FBD51E885348B8
:101790006F2F0CBF08230A23002184F843106568CB
:1017A000A560002DA2BF216821F0040121600EB9BF
:1017B000002D4BD01546B6FBF3F103FB1167C75D57
:1017C00005F8017D3746BB420E46F4D9082B0BD1F4
:1017D0002368DE0708D5236961689942DEBF30239C
:1017E00005F8013C05F1FF35521B2261CDF800A040
:1017F0004B4603AA21464046FFF7E4FE01304AD19A
:101800004FF0FF3004B0BDE8F087236843F02003B9
:1018100023603348782784F84570236829681F06B9
:1018200051F8046B02D45F0648BFB6B2DF0748BF69
:1018300043F02003296048BF23601EB9236823F0CA
:10184000200323601023A7E72448E4E71546BDE7FB
:101850002B6826686169181D286035061B6801D54C
:10186000196002E07006FBD519800023236115463C
:10187000BCE72B681A1D2A601D6862680021284693
:10188000FEF7A6FC08B1401B60606368236100237B
:1018900084F84330AAE723692A4649464046D047A0
:1018A0000130ADD023689B0713D4E068039B9842B6
:1018B000B8BF1846A6E70123324649464046D047FE
:1018C00001309DD00135E36803995B1AAB42F2DC2D
:1018D000EBE7002504F11906F5E700BF511A0008EF
:1018E000621A0008884210B501EB020402D9844252
:1018F000234607D8431EA14208D011F8012B03F854
:10190000012FF8E7024401468A4200D110BD13F8C6
:10191000014D02F8014DF7E738B5064D00230446A6
:1019200008462B60FFF7B6F8431C02D12B6803B1C1
:10193000236038BD100200200A44914200F1FF33B9
:1019400000D1704710B511F8014B03F8014F9142D7
:10195000F9D110BD2DE9F041804614460E4621B95B
:10196000BDE8F0411146FFF749BC2AB9FFF7DAFBA1
:1019700025462846BDE8F08100F01BF88442074662
:1019800002D8B4EB500F12D821464046FFF736FC80
:1019900005460028EDD0BC422246314628BF3A46D3
:1019A000FFF7CAFF31464046FFF7BCFBE1E735468B
:1019B000DFE751F8043C181F002BBCBF0B58C018C0
:1019C00070470000F8B500BFF8BC08BC9E467047E1
:0C19D000F8B500BFF8BC08BC9E4670478C
:1019DC00444953504C41590D0A53544D33322D3216
:1019EC003032340D0A000000627574746F6E206F13
:1019FC006E20707265737300627574746F6E2070F4
:101A0C007265737320746F2033207365632E00002E
:101A1C00627574746F6E206F6E2072656C65617385
:101A2C00650000000000000000000000010203043B
:101A3C0006070809232D302B2000686C4C006566C6
:101A4C006745464700303132333435363738394103
:101A5C004243444546003031323334353637383919
:081A6C0061626364656600001D
:041A7400B5010008B0
:041A780091010008D0
:101A7C000024F40000000000D800002040010020E9
:101A8C00A801002000000000000000000000000081
:101A9C00000000000000000000000000000000003A
:101AAC00000000000000000000000000000000002A
:101ABC00000000000000000000000000000000001A
:041ACC0004000020F2
:0400000508000C25BE
:00000001FF
